:020000040000FA
:1000000002005000000080FB120080B900030200D3
:100010003A900200AA82AB8390008378097901802C
:1000200015E493A3AC82AD838A828B83F0A3AA826A
:10003000AB838C828D83D8E9D9E7758232758302D0
:1000400074001200627582037583007400120062EE
:1000500075D0007581BF751000751102759F000283
:100060000008C09FF59FE473D09F22D083D082C048
:100070009FE493C0E0740193C0E0740293F59F2263
:10008000790122804020101020408012006B610115
:100090000012006B78010012006BA7010012006BC8
:1000A000E0010012006B19020012006B290200250A
:1000B00010C582C0E0E51134FFC583C0E0E510C380
:1000C000958224F810AF08858311858210800885F9
:1000D0008311858210D2AFCEF0A3E520F0A378087B
:1000E000E608F0A3DEFAEFF0A3E58124FAF8E608CB
:1000F000F0A3E608F0A3E608F0A30808E608F0A3DA
:10010000E608F0A315811581D0E0FED0E0F8158156
:1001100015811581E8C0E0EEC0E0228511838510CD
:1001200082E0A3FEE0A3F5207808E0A3F608DFFA5A
:10013000E0A3FFE0A3C0E0E0A3C0E0E0A3C0E0E0F4
:10014000A3C0E0E0A3C0E010AF0885821085831152
:100150008008858210858311D2AFD083D0820200BF
:1001600068E9A2E49284E9A2E59285E9A2E6928692
:10017000E9A2E792870200687C007D008019E824EC
:1001800001F8E93400F9C3E89417E9940240EFEC70
:100190002401FCED3400FDC3EC9AED9B5006780081
:1001A000790080E202006874F61200AFE9FF7E0079
:1001B00080238E0875090074002508F582740235C5
:1001C00009F583E0F912008B8F08750900AA08ABC6
:1001D000091200910EEEC3940440D77F0202011B66
:1001E00074F61200AFE9FF7E0080238E08750900C7
:1001F00074042508F58274023509F583E0F91200CC
:100200008B8F08750900AA08AB091200910EEEC386
:10021000940440D77F0202011BC082C08379001280
:10022000008BD083D08202006853F30F43FDF002AD
:1002300000681200A97508037A327B0012009180D1
:1002400020A90812009DEE2401FEEF3400FFC3EE4A
:1002500094F4EF940140EA1200A37AD07B071200D5
:10026000917E007F00800DA908120097EE2401FE08
:10027000EF3400FFC3EE94F4EF940140EA1200A3C0
:0D0280007AD07B071200917E007F0080C1C4
:0400000500000050A7
:00000001FF
