:020000040000FA
:060000000209FC0201BF31
:03002B000207B217
:03003300020804BC
:030043000206EDC5
:030053000200EDBB
:10008300020154010101FF05030128102810281063
:100093002810DE0ED80E28105F1D00000000FD1C86
:1000A300000000000C0000000C0001FFFF01010133
:1000B300000A050000005B05E80364006400B80162
:1000C30002020008000005020701051E02051E02C8
:1000D3000A0A03B80B02803E0102010210020A144D
:1000E30001E09651180002020612C0E074F21204F5
:1000F30043A2AFE433FED2AFE5A7FFE5A1F5085F66
:10010300541060061216D075A1EFE5085F5408601D
:10011300081216D675A1F7802BEFA2E0C0D0E50830
:10012300A2E092F0120998158182F050179061981D
:10013300E0F8900A3BE0C398A2D265D0335002E8BE
:10014300F075A1FE751A00EEA2E092AF7F010204E2
:10015300A2C0E074F2120443A2AFE433FED2AF9024
:1001630061A4E0F8759B00E5915854086008759107
:10017300F712171E802AE59158541060087591EF05
:10018300121724801BE8A2E0C0D0E591A2E092F010
:10019300120998158182F05007E0C2E0F01218743A
:1001A3009061A3E0F8E5E9585404600E12184A750B
:1001B300E9FB906193E0A2E640F28088C0E074F22C
:1001C300120443A2AFE433FED2AF9061A5E0F8E599
:1001D300BF585404600675BFFB12188C020147C355
:1001E300E498F8E499F91202238026C3E49AFAE426
:1001F3009BFBE920E7E9120223E498F8E499F9224A
:10020300C3E498F8E499F9120223E498F8E499F91D
:10021300C3E49AFAE49BFB22EB20E7CFE920E7E073
:10022300B90010BB0008E88AF084F8AAF022E4FBC6
:10023300C8FA22EB70227B10C833C8C933C93350C4
:1002430007C39AC3DBF280069A50012ADBEAC8335C
:10025300F4C8C933F4C9FA2275F008E4C833C8C92D
:1002630033C933C99AC99B5004C92AC93BD5F0EC99
:10027300FBC833F4C8E4C9FA22080808EAC0E0EB73
:10028300C0E086F0E7A4FA180986F0E7A42AFA1872
:100293000986F0E7A42AFA180986F0E7A42AFA19CE
:1002A30086F0E7A4FBE5F02AFA190886F0E7A42B09
:1002B300FBE5F03AFA190886F0E7A42BFBE5F03AE0
:1002C300FA18180986F0E7A4C5F02BFBE43AFA19EB
:1002D30008E7C5F0C6A426F6E5F03BFBE43AFA18B6
:1002E30086F0E7A4F6E5F00826F6E43B08F6E43AE0
:1002F30008F6D0E0FBD0E0FA22E4CFC0E0E4CEC0C1
:10030300E0E4CDC0E0E4CCC0E075F020C3E633F612
:1003130008E633F608E633F608E633F6181818EC61
:1003230033FCED33FDEE33FEEF33FFC3EC9709ED02
:100333009709EE9709EF97191919400FFFEC97FCEE
:1003430009ED97FD09EE97FE191906D5F0BEECF7F6
:1003530009EDF709EEF709EFF7191919D0E0FCD009
:10036300E0FDD0E0FED0E0FF222518C582C0E0E525
:100373001934FFC583C0E0E518C3958224F810AF94
:10038300088583198582188008858319858218D288
:10039300AFCEF0A3E520F0A37808E608F0A3DEFAD9
:1003A300EFF0A3E58124FAF8E608F0A3E608F0A34A
:1003B300E608F0A30808E608F0A3E608F0A3158111
:1003C3001581D0E0FED0E0F8158115811581E8C0D4
:1003D300E0EEC0E022120A5EB9000302042DE490AD
:1003E30003017892790C8002F0A3D8FCD9FA781A29
:1003F3009000867A01BA00028007E493A3F608DA34
:10040300F9900E92AA82AB83900087786779018076
:1004130015E493A3AC82AD838A828B83F0A3AA8273
:10042300AB838C828D83D8E9D9E77582A17583EB81
:10043300740212079475820275831B740012079469
:10044300C0D02518C582C0E0E51934FFC583C0E0DC
:10045300E518C3958224F310AF08858319858218A4
:100463008008858319858218D2AFC8F0A3E9F0A369
:10047300EAF0A3EBF0A37908E709F0A3D8FAECF0CC
:10048300A3EDF0A3EEF0A3EFF0A3D0E0F0A3D0E050
:10049300F0A3D0E0F0A3E520F0A3E5F0F0A32285DC
:1004A3001983851882E0C0E0A3E0F9A3E0FAA3E092
:1004B300FBA37808E0F608A3DFFAE0FCA3E0FDA3C2
:1004C300E0FEA3E0FFA3E0C0E0A3E0C0E0A3E0F50B
:1004D300D0A3E0F520A3E0A3F5F010AF08858319BE
:1004E3008582188008858319858218D2AFD082D07F
:1004F30083D0E0F8D0E032280075F0108E218F22EF
:10050300858226858325851882851983E0CEA3E01D
:10051300CF852682852583EBC9EAC8EDCBECCAC318
:10052300E833C8E933C9EA33CAEB33CBC3EA9EF5F0
:1005330024EB9FF523B35004AB23AA24EC33CCED77
:1005430033CDD5F0DAAE21AF2222D083D082ECC0F6
:10055300E0EDC0E0E493A3FCE493A3FDED4C600D58
:10056300120625EC24FFFCED34FFFD80EFE493A39A
:10057300FCE493A3FDED4C600D1206C2EC24FFFCDA
:10058300ED34FFFD80EFD0E0FDD0E0FCE493A3C0A9
:10059300E0E493C0E022D083D082E9C0E0E493A3F7
:1005A300C386F0C5F095F0F908E493A386F0C5F08F
:1005B30095F0700BE493A3C3994005E9048002A36B
:1005C300E475F002A42582F582E5F03583F583D046
:1005D300E0F9E493A3C0E0E493C0E02285198385A6
:1005E3001882E0A3FEE0A3F5207808E0A3F608DF75
:1005F300FAE0A3FFE0A3C0E0E0A3C0E0E0A3C0E013
:10060300E0A3C0E0E0A3C0E010AF088582188583B3
:10061300198008858218858319D2AFD083D08202CE
:10062300079AC0E0C3E49396087401939618400FA9
:10063300E49366700808740193661870007019A338
:10064300A3C3E49396087401939618A3A3400DD013
:10065300E0D0E0D0E0020589A3A3A3A3A3A3D0E045
:10066300227404800474028000CCC0E0EDC0E0E595
:1006730018C39CCCAD1950011D10AF068C188D19F1
:1006830080068C188D19D2AF120735D0E0FDD0E06B
:10069300FC2274028000CCC0E0EDC0E0E518C39CEE
:1006A300CCAD1950011D10AF068C188D1980068C26
:1006B300188D19D2AF120713D0E0FDD0E0FC22C091
:1006C300E0C0F088F0E4936670080874019366183C
:1006D3007000A8F0A3A3700BD0F0D0E0D0E0D0E07E
:1006E300020589A3A3D0F0D0E022C0E074F2120483
:1006F30043A2AFE433FED2AFC2C0E5D1A2E45003BC
:1007030012164C751A00EEA2E092AF7F010204A20A
:10071300CAC0E0E493A3C582CCC582C583CDC5839B
:10072300F0A3C582CCC582C583CDC583DAE5D0E00D
:10073300CA22CAC0E0E0A3C582CCC582C583CDC5A9
:1007430083F0A3C582CCC582C583CDC583DAE6D049
:10075300E0CA22C008C3E096F50808A3E096420861
:1007630008A3E096420808A3E09645087001D3D099
:1007730008227009080808226016181818C6C3331F
:10078300C608C633C608C633C608C633C6D5E0EAAC
:1007930022C09FF59FE473D09F22D083D082C09F55
:1007A300E493C0E0740193C0E0740293F59F22C008
:1007B300E0C0D0E8C0E0E5A8D2AFC2C7751A00A276
:1007C300E792AFD0E0F8D0D0D0E0327404800A745E
:1007D300038006740280027401C0E0F4041207E986
:1007E300D0E0120A39222518F58210AF08F5184017
:1007F3000215198008F51840021519D2AF8519831F
:1008030022C0E0C0D0E8C0E0E5A8D2AF751A00A2CC
:10081300E792AFD0E0F8D0D0D0E032C0D0251810A6
:10082300AF08F518500205198008F518500205198C
:10083300D2AFD0D022BB0102E722C082C08389821B
:100843008A83BB0003E08002E493D083D0822260DA
:1008530016080808C6C313C618C613C618C613C697
:1008630018C613C6D5E0EA22C3E0C696F608A3E08D
:10087300C696F608A3E0C696F608A3E0C696F62247
:10088300251810AF08F518400215198008F518400F
:10089300021519D2AF22E76670100809E766700ADD
:1008A3000809E76670040809E76622C3E09608A30F
:1008B300E09608A3E09608A3E096A2D265D033227F
:1008C300E066701008A3E066700A08A3E06670048F
:1008D30008A3E06622C3E697F60809E697F6080937
:1008E300E697F60809E697F622C3E096F008A3E038
:1008F30096F008A3E096F008A3E096F022E627F628
:100903000809E637F60809E637F60809E637F62256
:10091300E026F608A3E036F608A3E036F608A3E0DF
:1009230036F622E657F60809E657F60809E657F6BB
:100933000809E657F622E056F608A3E056F608A3A0
:10094300E056F608A3E056F622E056F008A3E05678
:10095300F008A3E056F008A3E056F022E647F608B5
:1009630009E647F60809E647F60809E647F622705E
:100973000422600D18C6C333C608C633C6D5E0F4D7
:100983001822E026F008A3E036F008A3E036F008CA
:10099300A3E036F022C0E0E8C0E0E58124FCF8E6FD
:1009A300A2E7D0E0F8D0E022E4C396F608E496F696
:1009B30008E496F608E496F622C6F4C608C6F4C61A
:1009C30008C6F4C608C6F4C622600D08C6A2E7131B
:1009D300C618C613C6D5E0F322C3E7960809E796FF
:1009E3000809E7960809E79622C3E09608A3E0966C
:1009F30008A3E09608A3E0962275D00075814075A0
:100A03001801751903000203D8E0F608A3E0F608FD
:100A1300A3E0F608A3E0F622600C08C6C313C618C9
:100A2300C613C6D5E0F422E6F008A3E6F008A3E671
:100A3300F008A3E6F022CAC0E0E6F0A308DAFAD091
:100A4300E0FA22E0FAA3E0FBA3E0FCA3E0FD22EA44
:100A5300F0A3EBF0A3ECF0A3EDF022E5C754F844C8
:100A630001F5C77901222518F582E43519F58322AA
:100A7300C2AF75D69F0200002212079DE7AA01129A
:100A8300079D3BAB0112079D57AB0112079D8BAB33
:100A93000112079DC0AB0112079DB7AC0112079D60
:100AA3006CAD0112079DBBAF0112079D0EB1011280
:100AB300079DB1B10112079D04B30112079D22B333
:100AC3000112079DE8580012079D1D590012079D4A
:100AD30043590012079D7D590012079D8F5900123B
:100AE300079DE1590012079D425A0012079DCC5AF7
:100AF3000012079D705B0012079DB85B0012079DF3
:100B0300F25B0012079D0F5C0012079D345C00121C
:100B1300079D865C0012079D9F5C0012079DC55CC4
:100B23000012079D005D0012079D445D0012079DA2
:100B33006B5D0012079DBC5D0012079D6C5E001289
:100B4300079D245F0012079DEC5F0012079DC9609B
:100B53000012079D4F610012079D5E610012079D01
:100B630069610012079D72620012079D8362001281
:100B7300079DF9620012079D8B630012079DE363D3
:100B83000012079DA9640012079DDA640012079DF5
:100B93001F650012079D2C650012079DC066001299
:100BA300079D25680012079D41690012079DAB6BE5
:100BB3000012079DB66B0012079DC06B0012079DC4
:100BC300CB6B0012079DD56B0012079DDF6B0012E4
:100BD300079DEA6B0012079DF56B0012079D266CBB
:100BE3000012079D4A6C0012079D6E6C0012079D50
:100BF300D36C0012079D176D0012079D336D001211
:100C0300079DAA6D0012079DE26D0012079D2E6ECF
:100C13000012079D8B6E0012079D6D700012079DD9
:100C2300F3700012079DCC710012079DDC74001253
:100C3300079D31750012079D5E750012079DAA7608
:100C43000012079DFA760012079D4F770012079D49
:100C530050780012079DE8780012079D6A79001208
:100C6300079D0A7A0012079D6D1F0012079DA61F9C
:100C73000012079D80210012079DBF210012079DCE
:100C830009220012079DAE220012079D0D230012B8
:100C9300079D41230012079DAE230012079DCB241D
:100CA3000012079DD3250012079D69260012079D98
:100CB300B0290012079D592A0012079D352B0012F7
:100CC300079D962B0012079DB32C0012079DDD2E66
:100CD3000012079D942F0012079D9E2F0012079D5F
:100CE300D12F0012079D98300012079D3331001257
:100CF300079D98310012079DC1310012079DE33112
:100D03000012079D12340012079DE9340012079D5B
:100D13002D350012079D9A350012079D5536001296
:100D2300079D87360012079DCB360012079DFE36BE
:100D33000012079D53370012079DA8370012079D25
:100D43003C380012079D9E380012079D0639001299
:100D5300079DAF3A0012079D973B0012079DD93CB0
:100D63000012079D073F0012079DC73F0012079D12
:100D7300F6410012079D99420012079DD7420012C7
:100D8300079D83440012079D97440012079DA144C9
:100D93000012079DCB440012079DD7440012079D04
:100DA300F6440012079DAD450012079DEC45001265
:100DB300079DF6450012079D00460012079D4B460E
:100DC3000012079DAE460012079DB5470012079D0E
:100DD30070480012079D6F490012079D684A001270
:100DE300079D054B0012079DA74B0012079DBE4BA5
:100DF3000012079DF54B0012079D134C0012079D2F
:100E0300574C0012079D7C4C0012079D624D001247
:100E1300079DCE4D0012079D484E0012079D574F68
:100E23000012079D96500012079DF8500012079D6F
:100E3300B2510012079DD5510012079DA95200120D
:100E4300079DF4520012079D36530012079D8D53E0
:100E53000012079DC4530012079DF2530012079D11
:100E63002B540012079D50540012079DD8540012B2
:100E7300079DFB560012079D5A570012079DEE5718
:100E83000012079D5A580012079DAE580012079D85
:100E93008FFE0212079DCEFE0212079D6BB4011254
:100EA300079DC5B40112079D21B50112079D6DB5BC
:100EB3000112079D88B50112079DB9B50112079D5F
:100EC300D6B50112079DE2B50112079D56B701126F
:100ED300079D6FB70112079DD6B70112079DE9B7AA
:100EE3000112079DF7B70112079DABB80112079DC9
:100EF3008FB90112079D95BA0112079D1BBB011201
:100F0300079D25BB0112079D92BB0112079DA9BB3B
:100F13000112079DDBBB0112079D14BC0112079D43
:100F23003EBC0112079D9FBC0112079DBFBC01126D
:100F3300079DDDBC0112079D23BD0112079D49BE1C
:100F43000112079D96BE0112079DC5BE0112079DA2
:100F53003BBF0112079D63BF0112079D9CBF011296
:100F6300079DAABF0112079D02C00112079D51C030
:100F73000112079D90C00112079DC0C00112079D79
:100F8300ECC00112079DF7C00112079D15C10112A4
:100F9300079DD7C10112079DE1C10112079D1CC224
:100FA3000112079D32C20112079D3BC20112079D28
:100FB30090C20112079DA4C20112079DB2C3011280
:100FC300079DC5C30112079DDCC30112079DF1C331
:100FD3000112079D93C40112079D16C50112079DB7
:100FE300D4C50112079DDFC50112079D05C7011274
:100FF300079D21C70112079D73C70112079DB2C741
:101003000112079DC7C70112079D09C80112079D59
:1010130056CA0112079DD4CA0112079D47CB01127C
:10102300079D69CD0112079D81CD0112079D84CDD6
:101033000112079D90CD0112079DA4CD0112079DBA
:10104300ACCD0112079DDFCD0112079D8FCE01129A
:10105300079D05CF0112079D78CF0112079D2CD064
:101063000112079DE1D00112079D00D10112079DD6
:10107300A0D10112079DACD10112079DD7D1011256
:10108300079DDAD10112079D09D20112079D1ED2D5
:101093000112079D88D20112079DB0D30112079D4B
:1010A30088D40112079D13D50112079D2CD6011276
:1010B300079DE9D60112079D22D70112079D53D739
:1010C3000112079DF3D70112079D23D80112079D33
:1010D300FED80112079D97D90112079D22DA01124A
:1010E300079DD3DA0112079D55DB0112079D87DBAC
:1010F3000112079DC8DB0112079DFDDB0112079D4D
:1011030009A40212079D6EA40212079DABA402124A
:10111300079DFAA40212079D10A70212079DF3A8C8
:101123000212079D5DAC0212079D98AC0212079D47
:10113300BAAC0212079D1DAD0212079D51AD0212FA
:10114300079D74AD0212079DA1AD0212079DFDAD6F
:101153000212079D848D0212079D028E0212079DC3
:10116300388E0212079DA48E0212079D1790021259
:10117300079D33900212079D78900212079D0691F6
:101183000212079D5F910212079D8C920212079D26
:101193009E930212079DFB930212079D679402120E
:1011A300079DC8940212079D09950212079DB695E3
:1011B3000212079DC8960212079DF3960212079D1D
:1011C3003E970212079D85970212079D17980212F8
:1011D300079DD2980212079D85B70212079DD1B7CA
:1011E3000212079D3FB80212079D60B80212079DC5
:1011F30010B90212079D19B90212079D6CB90212A8
:10120300079D95B90212079DFCB90212079D8DBA7D
:101213000212079DD79D0112079D19BB0212079D5C
:1012230078BB0212079D09BC0212079D48BC02123B
:10123300079D87BC0212079DBCBC0212079DCEBC52
:101243000212079DE0BC0212079DFFBC0212079D1C
:1012530008BD0212079DD5BD0212079D1DFF011295
:10126300079D6FE90212079DA5E90212079DEEE9AA
:101273000212079D9FAA0112079D5BDC0112079DC5
:101283009ADD0112079DD6DD0112079D95DF01123C
:10129300079DBEDF0112079D51E20112079D95E2F2
:1012A3000112079D1EE40112079DB6E40112079D7A
:1012B3001EE50112079DBFE50112079D01E601121C
:1012C300079D41E60112079DCCE70112079D3CE90A
:1012D3000112079D61EB0112079D8FEB0112079D20
:1012E300B6EB0112079DBFEB0112079D46EC0112FD
:1012F300079D64EF0112079D41FE0212079D57FEF1
:101303000212079D66FE0212079DD8FE0212079D78
:1013130046D50212079D59D50212079DF6D5021232
:10132300079D32D60212079D49D60212079D6ED63B
:101333000212079DB0D60212079DE1D60212079D45
:101343001CD70212079D96D80212079DD7D8021206
:10135300079D71FB0212079DA7FB0212079DC3FBAA
:101363000212079D05FC0212079D15FC0212079D40
:1013730077DF0212079D33E00212079D8DE102120F
:10138300079DEBE10212079DE5EF0112079D2AF08D
:101393000112079D11F10112079DE1F10112079D51
:1013A300F6F10112079D40F20112079D53F201125B
:1013B300079D94F20112079DA8F20112079D72F492
:1013C3000112079DEDF40112079D17F50112079D08
:1013D300A8F60112079DB7F60112079D06F7011241
:1013E300079D1CF70112079D3CF70112079D6BF740
:1013F3000112079D81F70112079D0FF80112079D46
:1014030069F80112079DB7F80112079DC1F901128E
:10141300079D30FC0112079DC5FC0112079D07FDC6
:101423000112079D9CFD0112079DB9FD0112079D45
:10143300BCFD0112079DCCFD0112079D3FFE011269
:10144300079D6EFE0112079D9AFE0112079DD5FEB0
:101453000112079DE4FE0112079D61FD0212079D23
:101463006DFD0212079DA7FD0212079D0080021267
:10147300079D2B800212079DED800212079D72814A
:101483000212079DDB810212079D27820212079D2C
:10149300A6820212079D38830212079DC48302129B
:1014A300079D06840212079D4F880212079DCF896C
:1014B3000212079D268B0212079DB28B0212079D13
:1014C30049990212079D039A0212079D759A021207
:1014D300079D119B0212079D819B0212079DB59CDC
:1014E3000212079D919D0212079D029E0212079D03
:1014F3007F9F0212079D41A00212079D58A102126D
:10150300079DF7A10212079DB4A20212079D17BE01
:101513000212079D6BBE0212079DB7BE0212079D02
:1015230002BF0212079D42BF0212079D92BF021221
:10153300079D35C10212079DA7C10212079DBFC1B6
:101543000212079DE6C10212079D51C20212079DB6
:1015530054C30212079D87EF0212079DB8EF0212D0
:10156300079D72F00212079DD8F00212079D1FEC2F
:101573000212079DF2F90212079D03FA0212079D58
:10158300A3FA0212079D61F10212079D6FF1021285
:10159300079DD67F0012079D1FFC0212079D2FFC9B
:1015A3000212079D47FC0212079DB4FC0212079D1D
:1015B300F0F80212079D75F90212079DD9F902127C
:1015C300079DC7F60212079DE7F60212079D31F742
:1015D3000212079D3EF70212079D7EF70212079D36
:1015E300D0F70212079DD3F70212079D74CD0212A2
:1015F300079D90CD0212079D0ACE0212079DEECEE3
:101603000212079DA7D00212079D0CD10212079D5B
:101613005BD10212079DF87F0012079DABED02120A
:10162300079DCDED0212079D00EF0212079D84EF87
:101633000212079D6ED10212079DDAD10212079D95
:10164300B0D20212079D09D40212079D64D402127C
:10165300079DB9D40212079DC2D40212079DD4D4A8
:101663000212079D3CD50212079D05C40212079D75
:101673005AC40212079D56C60212079D88C602125B
:10168300079DAAC60212079DC3C60212079DDCC6A8
:101693000212079DE6C70212079D81C80212079D29
:1016A300F9F20212079D1DF30212079D36F302128F
:1016B300079D69F30212079D9AF30212079DC8F36F
:1016C3000212079DD2F30212079D34F40212079D02
:1016D30043F40212079D4DF40212079D5AF40212BD
:1016E300079D1CE20212079D42E20212079D7FE260
:1016F3000212079D8EE20212079DADE20212079DC0
:1017030015E30212079D1EE30212079D7DE30212F9
:10171300079DA1E30212079D60E40212079D6DE499
:101723000212079D7EE40212079D1EFF0212079D0F
:101733003BFF0212079DF57A0012079D557C0012AC
:10174300079D627C0012079D757C0012079D947CA7
:101753000012079DAA7C0012079DBE7C0012079D04
:10176300337D0012079D987D0012079D207E001295
:10177300079DA97E0012079D7E7F0012079D8E7F25
:101783000012079D9D7F0012079DC8FC0212079D52
:10179300ECFC0212079D14FD0212079D3CFD021290
:1017A300079DACE40212079DD3E40212079DF4E403
:1017B3000212079D59E50212079D12E70212079DC7
:1017C3002BE70212079D37E70212079D4BE7021230
:1017D300079D69E70212079D73E70212079D7DE7E4
:1017E3000212079D90E70212079DE3E70212079D8D
:1017F3001CE80212079D4BE80212079D99E80212AA
:10180300079DE8E80212079D03E90212079D0DE90F
:101813000212079D1EE90212079D64E90212079D49
:10182300E4FD0212079D35FE0212079D49AE021226
:10183300079D73AE0212079D8FAE0212079DA2AEE3
:101843000212079DB8AE0212079D15AF0212079D43
:1018530048AF0212079D84B30212079DAAB4021275
:10186300079DDDB40212079D29B50212079D55B6E7
:101873000212079D7DB60212079D92B60212079DC2
:10188300A2B60212079DE6B60212079D47B70212DF
:10189300079D57B70212079D64F40212079D7FF458
:1018A3000212079DA8F40212079DC2F40212079DBB
:1018B300E7F40212079D06F50212079D1EF50212B8
:1018C300079D4CF50212079D66F50212079DBDFAAE
:1018D3000212079D03FB0212079DE4D80212079D23
:1018E300EBD80212079DF7D90212079D27DA0212DD
:1018F300079D4DDA0212079D70DA0212079D92DAF4
:101903000212079DCCDA0212079D32DB0212079DF9
:101913006BDB0212079DB7DB0212079DE4DB0212A9
:10192300079D04DC0212079D97F50212079DA9F596
:101933000212079DC1F60212079DC4F60212079D0B
:10194300DDF70212079D4FF80212079D8DF8021270
:10195300079DCEF80212079D64DC0212079D80DC0E
:101963000212079DCFDC0212079DEBDC0212079DDA
:101973001CDD0212079D2CDD0212079D18DE0212E8
:10198300079D22DE0212079D2FDE0212079D3FDF15
:101993000212079D53DF0212079D5CDF0212079DAF
:1019A300C0C80212079D05CD0212079D0ACD02127F
:1019B300079D5AFF0212079D5E9D0112079D059D1B
:1019C3000112079D999C0112079D709C0112079DAE
:1019D300639A0112079D2F9A0112079DFC99011228
:1019E300079DE0990112079D06990112079DBE9874
:1019F3000112079DF3960112079D73960112079D2D
:101A030070960112079D77950112079D4595011266
:101A1300079D82940112079DAD920112079D3E928C
:101A23000112079D10920112079D0D920112079D4D
:101A3300FA910112079D92910112079D8191011262
:101A4300079DDDA90112079D50A90112079D43A916
:101A53000112079D51A60112079DA3A30112079D21
:101A630062900112079D2C900112079DEF8F0112C6
:101A7300079D908F0112079D77A20112079D5F8F2B
:101A83000112079D1A8C0112079D0B8B0112079DF2
:101A93009A8A0112079DCBA10112079D3EEB021208
:101AA300079D5F8A0112079D2A8A0112079D1E8ADC
:101AB3000112079D7E890112079DC5880112079DAA
:101AC30098860112079D24840112079DE283011267
:101AD300079DAD820112079D62820112079D9181CC
:101AE3000112079DE8800112079D84800112079D62
:101AF300BE800112079D1CA00112079DCFBA0200F0
:101B0300000080FBE4738F000100C705870001001C
:101B1300EB0E24000200C60E25000200C80E2600AC
:101B23000200CA0E27000200CC0E28000100CE0ED0
:101B330029000100CF0E84000400D00E86000100AE
:101B4300D40E2A000100D50E2B000100D60E2C0066
:101B53000100D90E2D000800B2052E000100DA0E97
:101B63002F000100DB0E30000100DC0E310001000C
:101B7300DD0E32000100BA0533000100BB0534005D
:101B83000100DE0E36000100BC0538000100DF0E47
:101B930039000100D80E83000200E90E6300010042
:101BA300C60564000100AF0565000100D70E6D0096
:101BB3000100E80E6E000200B00543000100E00ED4
:101BC30044000200E10E45000100E30E460002005E
:101BD300E40E47000800BE0548000100E60E4B0076
:101BE3000100E70E04000100EC0EA1000100EF0E5E
:101BF30037000100EE0E88000100ED0E3C000100ED
:101C0300BD0500000000000000013636010100019F
:101C130002010001030100010401060605020000A0
:101C2300070100340801000F090401010D0100FF41
:101C33000E08000017020000190100FF1A0100013D
:101C43001B0100FE1C0100081D0200001F01000112
:101C530020010001210200002301000F24020000E3
:101C63002601000127010008280200FF2A010007BE
:101C73002B0102402C0100002D0100012E01000167
:101C83002F0100FF30010B1C310800003A0100084E
:101C93003B01000F2F01000001017101010101014E
:101CA30011010101310101010101800110016101F3
:101CB3003B001400630173017201620143010001DF
:101CC300130106013D013500040112010001000169
:101CD3000001000104010401330133013C0144010B
:101CE3003201360000010001650100013500810168
:101CF3000001050182018301000101037103010356
:101D0300010301030103010322030203010310037F
:101D13000003000300030003000300030003420366
:101D23000003240306030003000304031203250333
:101D33002303250323030403040300030003000315
:101D43004403000300032303000365032100350359
:101D53008103000305030003000300030300710074
:101D63003001600011007000310220035004800034
:101D73001000610000001400630073007200620031
:101D830043000000130006000000000004001200DE
:101D930000000000000000000400040037003700CA
:101DA3003C02440000000000000000006500000049
:101DB30035008100000005000000830000000302DD
:101DC300710230016002110270020102020202027A
:101DD3008002100261023A00410063027302720240
:101DE30062024302000213023800000200020402EE
:101DF3001202000200020002000204020402370081
:101E030037003C024402000239000002000265026E
:101E130000023502810200020502820283020002EF
:101E230036000100060000000F0000000000000063
:101E330000000000000003FFFF00000403FFFF0099
:101E430000FFFF0FF4010005C4040320000100009C
:101E53000B000000000000000003010F03EAF5E59A
:101E6300D5D5C5B5A59595858575756565555545CF
:101E73004535352525151505380F680F3E0F440FD9
:101E8300620F560F500F6E0F740F7A0F860F4A0FA3
:101E9300320F2C0F0100D8140200841403008A149B
:101EA30004009014050096140600A214FFFF00001E
:101EB3000AEC0C02B60C05C80C07BC0C0C980C0DF4
:101EC300AA0CFF000000160F00000B150B02000206
:101ED300220F3200000628103A104010020F46105D
:101EE300FC0E080F9410B210B8109A10A610A01090
:101EF300303016181920231A1C1E300C0E020B0446
:101F03000B0A0708000F00011916181616152303EC
:101F13000000034948424D181725050230301718B1
:101F23001921301B1D1F3000383C3E363B3B352BFF
:101F3300432C7C104C1052105E1058105C0F800F15
:101F4300AC108C0F920F020402010101010902007F
:101F5300BE040A0400E8030E00150008040C0A0C72
:101F63000905FF1E1E080403101074F712036CE921
:101F73009003B0F0900365E4F01219289003B5E4E0
:101F8300F0A3F09003B1F0A3F0120E3C12192E90BF
:101F93000334E4F0A3F0901F6C93FA790212198EC4
:101FA300024DC974F212036CEAFEEBFF54806069C0
:101FB3009003B0E0F91212088A088B09EA45096018
:101FC3004F7C0080010CEC75F003A4F8A9F074B306
:101FD30028F582741E39F583E493F4602CE493F8B6
:101FE3008508828B83E06870DCAA08EC75F003A493
:101FF300F874B428F582741E39F583E493C0E07451
:102003000193F583D082121B07AA08AB091211FCB6
:10201300EEFAEF6480FB022173EF5420601D120D72
:10202300468A088B09EA4509600A120CAAAA08AB7A
:10203300091211FCEEFAEF642080DAEEA2E0501AE6
:1020430090036AE0640F700B7900120C74E960036B
:10205300122176EE6401FAEF80BB54207003022153
:1020630041750C001236488B09EA450970107C0251
:102073007D007A207B009003B0E0F912132E7C00E0
:1020830079047A007B00120D228A088B0980188557
:102093000882850983A3A3A3A3A3A3A3A3A3740172
:1020A300F0850A08850B09E5084509606D7C007910
:1020B30004AA08AB09120D228A0A8B0B750C01E5E1
:1020C300082404F8E5091233EC24FFF0A3E034FFFD
:1020D3001258A570CC850882850983A3A3A3A3A363
:1020E300A3A3A3A3A3E0640170A585088285098344
:1020F300A3A3A3A3A3A3E054047094850882850932
:1021030083A3A3A3A3A3A3A3A3A37406F07AB7856E
:1021130008828509831222A28087120CF27C00793F
:10212300017A007B00120D228B09EA45097009E54B
:102133000C70057A201245A2EE6420022059EF5458
:1021430002600B120E36EEFAEF6402022018EF540F
:102153000460191248FF12481F7901900363124B60
:1021630083120BBAEEFAEF64040220187A007B00A4
:102173000223A9900EC6122A40120C8C22C082C0E0
:102183008374EA120883851882851983AA82AB8334
:10219300794B1219647408120A697402F0740912F3
:1021A3000A69AA82AB8379501219647413120A69FB
:1021B300E4124D521219827416023B6674F712032D
:1021C3006C74E1120883EAFEEBFFEE4F603385186F
:1021D30082851983AC82AD83120D6A7406120A6973
:1021E300E0601E7417120A69E0FD7401120A69E0C7
:1021F300FCEEFAEFFB7900120AB8E9600479A480D7
:10220300027900024DC474F612036CEAFEEBFF8EF2
:10221300828F83A3A3A3A3A3A3E05440601B125202
:102223004112237060067AFF7BFF801A8E828F83B0
:102233001237F2FAA3E0FB8003120D8E74FE6A706C
:102243000374FF6B60411252411245E6120DFAE925
:102253008E828F83600612229BE4800512229B7478
:1022630001F07C7A7D0C8E828F83124B8312198846
:10227300E9F5087015EE4F60097901EEFAEFFB12EC
:102283000CFEA9080246A97508CDAA088E828F8381
:102293001222A2E960DF80EAE0240D123CC122E0B1
:1022A300240C123CC1E0F9120C862274F612036C62
:1022B300E9FEEAFF7A0F7B001211F6EA4B60198AF6
:1022C300828B83740CF0EEA3A3F0EF8A828B83A33B
:1022D300F01248087900802FEEF9120D288A088B36
:1022E30009A808A909E849601C88828983A3A3A3D4
:1022F300A3A3A3A3A3A374061254CCE0F9120C3E28
:10230300EEF9120D0479100246A9C082C08390032E
:102313006AE0640F7014EA4B6010900365E0640890
:102323006005E064047003122330023B90EAFCEB87
:10233300FD7A017B009003B0E0F912132822C082DA
:10234300C0837900EA241DF582EB1237EF24FD6088
:102353000B14600824FD600424FD700109023B9006
:102363008E828F83A3A3A3A3A3A3A3A3A3122374E4
:1023730022123837FB120DFAE9228E828F83A3A330
:10238300A3A3A3A3A3A3A31223746402228E828F05
:1023930083A3A3A3A3A3A3A3A3A3123B879003563F
:1023A300E0682212081E7F060205DF74F412036C34
:1023B30074FD1208838A088B098A828B83A3A3E0A6
:1023C300F9120D288A0A8B0BAE0AAF0BEE4F70037E
:1023D3000224B5850882850983A3E064F160308512
:1023E3000882850983A3E064CD602485088285097A
:1023F30083A3E0641A6018850882850983A3E064D7
:10240300E9600C850882850983A3E064E17008799B
:1024130000120CFEE9706C850882850983A3E0C075
:10242300E07402120A69D0E0123B6BEEF0A3EF12E4
:102433002E96851882851983AA82AB837005120BA9
:10244300A28003120DE27402120A69E064E9703398
:102453008E828F831224C1750A01780A1207DA75F6
:102463000AE9780A1207DAE508240CF582E509126D
:102473002988122E73FCA3E0FD8A828B83122E8D92
:1024830012081E8E828F83A3A3A3A3A3A3A3A3A334
:10249300E0640270108E828F83A3A3A3A3A3A3A3DC
:1024A300A3A37406F0850882850983A3A3E0F91228
:1024B3000D04120CF2900ECA122179022A45E0F89B
:1024C300A3E0F9E8FAE9FB2274F412036CEAFEEBE9
:1024D300FF7508008E828F83A3A3A3A3A3E06042AA
:1024E3007508088E828F83A3A3A3A3A3A3A3A31218
:1024F3003A9A8B0BEA450B601075082C8E828F83FA
:10250300A3A3A3A3A3E0D2E0F08E828F83A3A3A30C
:10251300A3A3E05403640160030225B4430811023A
:1025230025B4EE2418122A526033EE241A122A52CA
:10253300700F1223907003A3E069707575082280F1
:1025430070EE241BF582EF1225B9241AF582EF12DF
:102553002E9EEE2419125275120C2C805412237DD8
:1025630070037508011223907003A3E0697006E5F8
:1025730008D2E1F508E50860158E828F83A3A3E0F6
:102583007006E508D2E58004E508D2E6F5081223D3
:102593006364017006E508D2E0F5088E828F83A399
:1025A300A3E0600D1225C764016006E508C2E0F5EB
:1025B30008A908022A4A1237DD1225C022E0FCA32B
:1025C300E0FDEE221237D712380FF9120DE8E92297
:1025D300C082C08379018A828B83A3A3E0C3940260
:1025E3004001198A828B83A3A3A3A3E0C39402406F
:1025F3000279008A828B83A3A3A3A3A3A3A3A3A388
:10260300E064F87003A3E0F460458A828B83A3A39C
:10261300A3A3A3A3A3A3A3E064F97003A3E0F460BB
:102623002E8A828B83A3A3A3A3A3A3A3A3A3E06460
:10263300FA7003A3E0F460178A828B83A3A3A3A396
:10264300A3A3A3A3A3E064FB7003A3E0F470027944
:10265300008A828B83A3A3A3E0F8900353E068600E
:10266300027900023B9074F012036C74DE1208834B
:10267300EAFEEBFF8E828F83A3A3A3A3E0600E90F9
:102683000EC81246A06006900EC812217974031278
:102693000A69AC82AD838E828F83A3A3A3124856AB
:1026A30012508FE9600F7403120A69AA82AB831276
:1026B3000CA4E97008790112193A02297DEE241B52
:1026C3001237E27410120A6912481F7409120A6958
:1026D300E06021741A120A69E0FD7404120A69E0C9
:1026E300FC8E828F83124B817901120AB8E9600450
:1026F300790280C37403120A69AA82AB83120C9E07
:10270300E9F50A7409120A69E0702A90034DE06042
:10271300247422550A6422601C7442550A64427070
:10272300CF7420120A6912299B600A7420120A6965
:1027330012299470BBE9A2E650417403120A69AAF4
:1027430082AB83120C92E970030226B87420120A3A
:10275300691237F26403700F7420120A69A31246D8
:1027630092A3E0640D60147403120A69AA82AB8316
:10277300120E0CE96401700302297DEE242C122948
:1027830085122CA97003A3E069701C7508007808F2
:102793001207DA78081207DAEE242E12527512297C
:1027A300A1122E8D12081E7409120A69E070030229
:1027B300285A1229A1124B83120E608A088B09EA48
:1027C300450970030228F77404120A69E0F88E823F
:1027D3008F83A3A3E028F8A3E03400F9E8240D12C3
:1027E300298C8A828B83A3A3A3E068601CE88A8276
:1027F3008B83A3A3A3F0908047120A4685088285A2
:102803000983A3A3A3A3120A527904E9120A691242
:10281300506C2AF8A3E034008882F583A3AA82AB24
:10282300831211EA8A0C8B0D8C0E8D0F850882851D
:102833000983A3A3A3A3780C120756400302297D9F
:1028430090804B780C120913850882850983A3A312
:10285300A3A3780C120A2A900365E064046008E0DD
:102863006409600302297DE50AA2E54003022935D4
:10287300EE242E122A52851882851983F0EE242F16
:10288300122A52C0E07401120A69D0E0F0EE24303B
:10289300122A52C0E07402120A69D0E0F0741412D2
:1028A3000A69E064017027740E120A691237E8EEB0
:1028B3002412122A52687003A3E0697011740C1277
:1028C3000A6912238A70077414120A69E4F0EE2469
:1028D300241229851206647404120A69AC82AD833A
:1028E3007407120A69AA82AB83120BA87404120834
:1028F3001E02297D9003AAE06401600302285A7432
:1029030020120A6912299B7009E50AA2E650030204
:10291300285A7410120A69E0F47003A3E0F4605AB1
:10292300EEFCEFFD7403120A69AA82AB83120CB0AA
:102933008048A2E650447420120A69124B92701A1E
:10294300741A120A69E0640270307403120A69AAE5
:1029530082AB837900120DD680207420120A69128B
:1029630029947016741A120A69E06404700C7403D3
:10297300120A69AA82AB83120DD07422024F3EEE73
:10298300240BF582EF1237DD22F582E9124838F87D
:1029930022125253E064072212380F640622EE24F7
:1029A3002A1237DA1225C024121237DA2274F412EB
:1029B300036CEAFEEBFF8C088D099005BAE0600F0B
:1029C3001223907003A3E0697005120C1A804F79EB
:1029D30000124B76120C4A8A828B83E58245836010
:1029E30035A3A3A3A3A3A3E05418602AE508241BDB
:1029F300F582E509122988120668123086122988A1
:102A0300120668EE2418125275122A23120C5C74F3
:102A13000412081E80087900122A23120C20802732
:102A23008E828F83A3A3A3A3A3A3A3A3A31225C0CF
:102A3300240BF582EF122A3C223400F58312383737
:102A4300FB22740312081E7F040205DFEE2417F530
:102A530082EF1248382274F712036C74F71208835A
:102A6300EAFEEBFF900365E06403600DE064016040
:102A730008E064096003022B238E828F83A3E07036
:102A83007E7C007D007A027B00121934EE2402FA68
:102A9300EF1233F31237E890035612481F7953129B
:102AA300196A7900122B28E064096003122EBB8592
:102AB300188285198374011247A69003657404F084
:102AC3007401120A69AA82AB83794A1219647401E8
:102AD300120A69AC82AD837A5B7B031219529003AD
:102AE300561250857A03122EC5900350E0A2E3508C
:102AF30004D2F08002C2F0124793122176801E8E18
:102B0300828F83A3AE82AF83FC7D007A037B101296
:102B130019348E828F83E0F9122B28E4F0120CDA39
:102B23007409024DC6900363122A40120BBA900334
:102B33006522C082C0839003341246A0701F9003A5
:102B430065E014600924FC600A14600C800F900394
:102B53003C8032900338802D90033A8028E8496006
:102B630008900335122E6D700C8A828B83A3E0F9D3
:102B7300120BAE801B9003351231227005120E2A00
:102B8300800E9003D21246A06006124692121B07D3
:102B9300023B9074F412036C74FB1208838A088B53
:102BA300097A0F7B001211F68A0A8B0BAE0AAF0B60
:102BB300EE4F7003022C9D8E828F83124D507950FD
:102BC300121964850882850983A3E06003022C85BA
:102BD300900363E0F47003A3E0F46034900363E0D4
:102BE30064FE7003A3E0F4602785188285198312BD
:102BF3002CA97003A3E0696017850882850983A364
:102C030074EA122EA37A637B03795012196A8072D5
:102C130085188285198312523412481F7A567B0312
:102C2300795312196490035612485012481F7A5967
:102C33007B03794B1219647A587B0379E112196487
:102C430090036AE0C3940F5021900358E0C0E074EE
:102C530002120A69D0E0F07404120A697401F004E4
:102C6300120A69AA82AB8312197C750A00780A12C8
:102C730007DA780A1207DA900EF6E0F9122E8412B8
:102C8300081E850882850983122CA2A3F090036590
:102C93007403F0EEFAEFFB1248087405022A47A307
:102CA300E08E828F8322125238E06822123CC822BF
:102CB30074F512036C74D81208838A088B098A820C
:102CC3008B83A3A3A31238147415120A69AC82ADC3
:102CD300838A828B83A3A3A3A3A3A3A3A3122E7389
:102CE300FAA3E0FB120CE07415120A69E0706B851D
:102CF3000882850983A3A3A3A3A3A3A3A3E0C394E7
:102D03000B40578E828F83A3A3A3A3A3A3A3A3E004
:102D130064027046EE240B122A52F4703D90036550
:102D2300E06402603AE0640660359003341246A022
:102D33006005122E6D604F900365E064086005E046
:102D4300640470167417120A69E0F9741C120A6994
:102D5300AC82AD83124B76120CE674280257529064
:102D630003341246A0701F75080078081207DA783A
:102D7300081207DAEE241012298512528D1234DB61
:102D8300122E8D12081E8E828F83124AF212340580
:102D93001237E87402120A6912481FEE240D122A30
:102DA30052C0E07404120A69D0E0122E96F508A30B
:102DB300E0F509740F7808120A1B7405120A69E515
:102DC30008F07419120A69E0C0E07406120A69D0A7
:102DD300E0F0741B120A69E0C0E07407120A69D0BC
:102DE300E0F07416120A69E0C0E07409120A69D0AF
:102DF300E0F07417120A69E0C0E07408120A69D09F
:102E0300E0F0EE2410122A52C0E0740A120A69D0CC
:102E1300E0F0741A120A69E0C0E0740B120A69D078
:102E2300E0F07427120A69E0C0E0740C120A69D05A
:102E3300E0F0741C120A69A982AA8389088A0975B9
:102E43000A0078081207D27C087D007410120A6900
:102E5300AA82AB831241BD12081E8518828519838D
:102E6300AA82AB83120BB4022D5D123128640122B6
:102E7300E0F98A828B83A3A3A3A3A3A3A3A3A3E0C1
:102E830022900363125089900359122A40120DA015
:102E9300740222F0EE240B12483522124838FA222B
:102EA300F07A567B037953122EAE2212196A7A599D
:102EB3007B03794B12196A22900363122A40120E84
:102EC3005A227B001219349003591250897A047BD9
:102ED3000012193422F01252982274F212036C7405
:102EE300F8120883EAFEEBFF8C0A8D0B890C851818
:102EF30082851983AC82AD8375838075822A7408B9
:102F0300120735F50DEEFCEFFD851882851983AAAE
:102F130082AB83124A537003750D019003B1803B5A
:102F2300EEFCEFFDE508240BFAE5093400124A52E2
:102F3300601E850882850983A3A3E0650C70118553
:102F43000882850983E0650A7004A3E0650B603895
:102F5300E5082414F582E5091229881233FDE508F2
:102F630045096024E50DA2E040B685088285098302
:102F7300E0650A7004A3E0650B70D58508828509B6
:102F830083A3A3E0650C70C8AA08AB0974080223E5
:102F9300A6C082C0839003B1023B8D74F712036C09
:102FA3009003B11238378012EA2414F582EB122908
:102FB30088123814121A9CEEFAEFFBEA4B70E99070
:102FC30003B1E4F0A3F0024DC97F070205DF74F1FA
:102FD30012036CEAFEEBFF890A8C088D098E828F3F
:102FE30083E08C828D83123AA4AE82AF83E01242D7
:102FF3007D1241EEC412427D12308FE054038C8265
:103003008D831241ECA2E2E4338C828D831241EB77
:10301300131313541F12427D1241EAA2E7E4338CC7
:10302300828D83A3A3A3A312308F8E0C8F0D750EF5
:1030330000780C1207D27C087D00E5082407124FA4
:10304300F812081E1250638E0C8F0D780C1207D2E3
:103053007C037D00E508240F124FF812081EE50AD1
:10306300C3940F40148E828F83A3A3A3E0C0E01206
:103073003086122988D0E080061230861254C0F0C0
:10308300022FCCE5082412F582E50922A3A3123A04
:10309300A80EAF832274F412036C74F9120883EA46
:1030A300FEEBFF89089003341246A0600E12312212
:1030B3007009EEFAEFFB120E24805F900363E06E5B
:1030C3007003A3E06F70537401650860097A777B1E
:1030D30003124A5370447A007B0212364C8B0BEA7C
:1030E300450B7036900366120A468518828519834C
:1030F300120A5290036CE0C0E07404120A69D0E033
:10310300F07405120A697401F07406120A69124D0B
:1031130050120B7EE9609B120B847407022A47123C
:103123003128640222125254A3A3A3A3A3A3E0222F
:1031330074F512036C8A088B098A828B83A3AE828F
:10314300AF83E0F9120BD28E828F83E064EB600CC5
:10315300850882850983A3E064E170098508828577
:103163000983A3E4F0122176750A01780A1207DABB
:10317300850882850983A3E0F50878081207DA79C0
:1031830000122E8412081E120CF2025755EAF0A305
:10319300EBF0023B9074F612036C9003B4E0701BE7
:1031A3007C0079017A007B00120D22EA4B600C8AC5
:1031B300828B831246A06003120C800246A9C08250
:1031C300C083123634401079FF120D1CE9F8901FAA
:1031D30062E493C3985004790180027900023B9022
:1031E30074F012036C8A088B09890B750C008A82B0
:1031F3008B83A3A3A3A3A3A3A3A3E0F9120D288AFC
:103203000E8B0FAE0EAF0F750A01EE4F6003023245
:10321300C1850882850983A3A3A3A3A3A312508511
:10322300850882850983A3A3A3A3A3A3A3123FBDF8
:10323300124B83120D108A0C8B0DAE0CAF0DEE4F9B
:1032430070030233E48E828F83A3A3A3A3E4F0A3CA
:10325300F0E508240B1233F0E0C0E0122982D0E03D
:10326300F0120E00EE240CF582EF1245E2E508247D
:103273000EF582E5091237E5EE240EF582EF1248CA
:103283001C750C01EE2406F8EF1233EC547FF0A307
:10329300E054FC1252EAE054046003023347900EF8
:1032A300CE123FAE740778081209728E828F83A301
:1032B300A3A3A3A3A3E04508F0A3E04509F08E82EE
:1032C3008F83A3A3A3A31233FB74077808120A1BEB
:1032D300E5085407F508E50B607A8E828F83A3A374
:1032E300A3A3A3A3A3A3A374021241EF240D123C2F
:1032F300BDE0A2E2500B900351124850A3A3124821
:103303001FE50870030233B9EE2406F8EF3400F921
:10331300E8FAE9FB8A828B83E0547FFCA3E054FC48
:10332300FDE50824FFF508E434FFF5097407780880
:10333300120972EC4508F8ED4509F98A828B83126C
:10334300481F80728E828F83A3A3A3A3A3A3E04409
:10335300800232C0E5087005750A0080598E828F9D
:1033630083A3A3A3A3A3A3E0542060121211F0EA42
:10337300547F245F8E828F83A3A3A3A380238E8293
:103383008F83A3A3A3A3A3A3E05410600A1211F095
:10339300EA540F240A80DD8E828F83A3A3A3A37430
:1033A30001F0A3E412340574041236438B09EA4591
:1033B3000970031245D5E50CA2E050288E828F8355
:1033C300A3A3A3A3124DB6F9EEFAEFFB120D16E970
:1033D300601212469660031237CDEEFAEFFB121A13
:1033E3009C750A00A90A024F4112491322FAE50902
:1033F3003400FB8A828B8322A3A3E0F508A3E0F5C4
:10340300092212340922125014A3A3A3A3A32274E2
:10341300F412036C74F71208837E00120D28EA4B32
:1034230070030234D48A828B83A3A3A3A3A3A3A38D
:10343300A3A3E0640660030234D48A828B83A3A32C
:10344300A3A3A3A3A3E0FF8A828B83123CD0E0C093
:10345300E07408120A69D0E0123808124A59124877
:103463001F120D3AEF54086066851882851983127E
:1034730050857A007B00120D0A8B0BEA450B704FC7
:103483009003631238F81219947C007D007A007B54
:103493000080288E828F831237F2F47003A3E0F446
:1034A300602D9003631234DB124B83121670E964B0
:1034B3001A601C7C007D00EEFAEFFB120D0A8A0AEB
:1034C3008B0BAE0AAF0BEE4F70C9790012199A7EBF
:1034D30001EEF97409022A471234DF22E0FCA3E06B
:1034E300FD8E828F8322C082C083EA4B70059003D6
:1034F300B580068A828B83A3A31236F860258A825D
:103503008B83A3A3A3A3A3A3A3E0540860E5EC4D7B
:1035130060158A828B831237F26C7003A3E06D709F
:10352300D280047A007B00023B9074F212036CEAAF
:10353300FEEBFF890A8C088D097A107B0012126E4C
:10354300EA4B603F8A828B83A3A3A3A3A3A3A3A372
:10355300A3E41237F6A3E50A12525AA31235908A4E
:10356300828B83A3A3A3A3E4F0A3123802A3F012D4
:1035730050EEEA240CF582EB123A94123589A3A398
:10358300F0A3F00223A9A3F08A828B8322A3A3E5ED
:1035930008F0A3E509F02274F412036CEAFEEBFFD2
:1035A30089088C0A8D0BEE4F605574016508701401
:1035B3007901120D1CE9F8901F68E493C398500F2A
:1035C3007911806A74046508702F12363440F18EC5
:1035D300828F83A3A3A3A3A3A3A3A3A3E508123A60
:1035E300A4A31257DF8E828F83A3A3E4F0A3F090EA
:1035F30003B51246A06021800D7402650860D0797E
:10360300C1802BE0F8A3124849A3A31236F888829D
:103613008983A3A370ED80039003B5EEF0A3EF12AB
:1036230036438B0BEA450B70031245D57900022A0A
:103633004A7904120D1CE9F8901F64E493C398229D
:10364300F0123648227A207B009003B0E0F912137F
:103653003A22C082C083E9F879009003B5801D8ABD
:10366300828B83A3A3A3A3A3A3A3A3A3E06860055F
:1036730074FF687001098A828B83A3A31236F870E2
:10368300DE023B9074F712036CEA4B70059003B5AE
:1036930080068A828B83A3A31236F860248A828BE6
:1036A30083A3A3A3A3A3A3A3A3A3E06970E4EC60F0
:1036B300148A828B83E0240D125076A2E240D380D9
:1036C300047A007B00024DC9C082C0839003B58099
:1036D300068A828B83A3A31236F860128A828B83B5
:1036E300A3A3A3A3A3A3A3A3E06970E580047A0023
:1036F3007B00023B90122A40EA4B2274F212036CC5
:103703008A0A8B0B8C0C8D0D750800750900EA4530
:103713000B602E9003B580068E828F83A3A312378E
:103723004B601EAC0CAD0DEEFAEFFB850A82850BE8
:1037330083121B07E9640170DFEEF8EFF98808894B
:1037430009AA08AB090223A9E0FEA3E0FFEE4F227A
:1037530074F712036C9003B51237E87C007D008088
:103763000DE8FCE9FD88828983A3A31237E8E849C1
:103773006030EA687002EB6970E79003B5124B831F
:10378300E86A7002E96B88828983A3A37008123701
:10379300E89003B580091237E88C828D83A3A312C6
:1037A300481F024DC974F712036CEAFEEBFFEE4F9C
:1037B3006015120D3412381A12469660031237CD73
:1037C300EEFAEFFB121A9C024DC9EE240C1237DA03
:1037D30012382F22EE241DF582EF3400F58322F5F3
:1037E30082EF1237DD123B8722F582EF1237DD12AB
:1037F300380F221237FA22125262A3A3A3A3221272
:1038030037FAA3A32212358A12380F2212524DE03F
:1038130022E0FEA3E0FF228E828F83E0241C123C71
:10382300C112382F8E828F8312382F22123837FB22
:10383300121A9C22E0FAA3E022C082C083EAFCEBC6
:10384300FDEC4D700479058044EC24FBF582ED34E6
:10385300FF12469E7007123893E0F460051211FCC4
:1038630080E39003B0E0C0E0123893D0E0F0901F03
:1038730061E493F97AB77B03121226E96401700BB2
:103883007A007B201245D9790080027904023B90AB
:10389300EC24FFF582ED34FFF5832274F412036CFC
:1038A300A2AFE433F508C2AF9003B712374B6038C9
:1038B300EE24FBF582EF34FF12469E7A007B2090C4
:1038C30003B060051245DC8005E0F9121232E4F51D
:1038D3000AF50B780A1207D6EEFCEFFD7AB77B03E5
:1038E300121220740212081EE508A2E092AFEEFA4B
:1038F300EFFB022A4A125089851882851983AA820E
:10390300AB832274F212036C74FC120883EAFEEB9D
:10391300FF750AFE750BFF120CF8E96005791102B9
:103923003A89EE2415122A526037900EE7E0C43329
:1039330054E0F8E0333354FC48C0E0EE2415122978
:1039430085D0E0123AA4123A9A8B09EA450960112C
:10395300750AFFEE240F122A52440412482DD2E0B6
:10396300F08E828F8312236E6006EE2412123A9138
:10397300EE2413122A527010901F67E493C0E0EEF6
:103983002413122985D0E0F08E828F83E0A2E750C2
:10399300045403801CEE2414122A5270159003421F
:1039A300E0C0E0EE2414122985D0E0F0900342E059
:1039B30004F0EE2411122A52640170169005AFE050
:1039C300600D90034DE0700A8E828F83E0700312C6
:1039D3003A8E8E828F83E064017013EE240B1237CC
:1039E300EC64027009EE240F122A524440F0851849
:1039F30082851983AC82AD83EEFAEFFB120D5E8AEA
:103A0300088B0974FE650A700374FFF470098E82D3
:103A13008F83A3A3125004EA450960668E828F83C5
:103A2300E0C0E07401120A69D0E0F07402120A697E
:103A33001250F27401120A6985820C85830D780C89
:103A43001207D6EE240F122985120668EE240E12F1
:103A53002A52F50C780C1207DA9003561206687492
:103A630007120A69E0F9AC0AAD0B120D587407127C
:103A7300081EE9FE74106E700BAA08AB09121A9C9B
:103A830080027E10EEF974040223A6EE2411F5825F
:103A9300EF1237DDE4F022A3122A4079FF121274E9
:103AA30022123AA822F08E828F83A322C082C0837F
:103AB30074DE1208838A828B83A3A3A3A31237E83D
:103AC300740E120A69E8F0A3E9123B7E740C120A21
:103AD30069123B77240DF582EB122A55C0E0741A64
:103AE300120A69D0E0F0124F51EB1237E57420123D
:103AF3000A69123B772415F582EB122A55C0E0744C
:103B030008120A69D0E0F0EA241CF582EB1237E5CB
:103B13007412120A69123B772411F582EB122A55AB
:103B2300C0E07409120A69D0E0123B6B74FFF074B1
:103B330001120A6974FFF07402120A6974FFF090AB
:103B430080471206647404120A69AC82AD83740759
:103B5300120A69AA82AB83120BA8740412081E7995
:103B630000742212081E8025123B6F22F0851882F2
:103B730085198322E8F0A3E9F0EA2212358AA31219
:103B83003B8622A3E0F8A3E0F922124B83D083D033
:103B93008202079A74EC12036C74EE1208838A1281
:103BA3008B13ECFEEDFF89097426120A6912500487
:103BB3007428120A69E0F5107429120A69123CB2DA
:103BC300742B120A69E0F50EA3E0F50F7508107A5D
:103BD3001E7B0012126E7402120A691245E6740209
:103BE300120A691246A07003023CAB85188285193C
:103BF30083AA82AB8379501244C1124B837402129D
:103C03000A69123CD0A31245E67410120A691257CE
:103C1300E17402120A69E0240B123CBD7402F01233
:103C23000A69123CD07402F0120A6912524512500A
:103C3300F27402120A69124B98E509F07402120A2F
:103C430069E0240C123CBDE510F07402120A6912FB
:103C53003CBAE512F0A3E513F07408120A69E50C07
:103C6300F0A3E50DF0740A120A69E510F0850E82DF
:103C7300850F83C082C083740D120A69AC82AD8341
:103C8300D083D0827403120735F97402120A69AA29
:103C930082AB83120CFEE96401700575080080088D
:103CA3007402120A691237D3A908741202501BE076
:103CB300F50CA3E0F50D22E0241C123CC122F8A36D
:103CC300E0123CC8223400F98882898322124B8B8C
:103CD300A3A3A3A3A32274EE12036CEAFEEBFF8C4F
:103CE300088D098E828F83A37408124868E06008E8
:103CF3008E828F83A37410F0122A4F60098E828FF5
:103D030083A3E02408F0EE2415122A5260088E8261
:103D13008F83A3E004F08E828F83A3A3A3A3A3A323
:103D2300E060198E828F83A3A3A3A3A3A3A3E0C3FD
:103D3300332402F88E828F83A3E028F0EE2411123D
:103D43002A526005750B0E8003750B008E828F83DC
:103D5300A3C082C083EE240D122A52D083D082F8EE
:103D6300E028250B8C828D83F0EE2411122A5260F9
:103D7300051241CD28F0850882850983E0C3947537
:103D83004009750800750900023EBBE0FA7B00128A
:103D930051A07003023EBBEEFAEFFB120D64EA85FD
:103DA30008828509831245E7EE2402F8EF122CAF4F
:103DB300123FB5123EF7F0EE24040808EF122CAFC1
:103DC3001243F7A3123EF7A3A3F0EE2413123EDD32
:103DD300F0EE2414123EDDA3F0750A08EE24161249
:103DE3002A526010EE2418125082E5082408125259
:103DF30083750A10122A4F6016EE241A1250828518
:103E03000A0CE508250C1252837408250AF50A8E5C
:103E1300828F83A3A3A3A3A3A3E06059EE2407F592
:103E230010EF3400F511851082F583E0C0E0123EF7
:103E3300C4122988D0E0123EE7E0C0E0123EC4126B
:103E43002988D0E0123EE7A3123ED01207D2851094
:103E530082851183E0C333FCE433FD850A0CE50856
:103E6300250C124FF812081E851082851183E0C3BA
:103E730033250AF50AEE2415122A52600BC0E0120C
:103E83003EC4122988D0E0F0122982123ED01207D4
:103E9300D2EE240D122A52FC7D00850B0A8E828FEE
:103EA30083A3E0F8E50828F8E5093400F9E8250AD2
:103EB300FAE9124FFB12081EAA08AB097F0A020592
:103EC300DF850A0CE508250CF582E50922E0F50CEF
:103ED300A3E0F50D750E00780C221237DA123F01BC
:103EE300A3A3A322F0050A8E828F83A3A3A3A3A374
:103EF300A3A3A322A3A31252EEA3123F01221243B0
:103F0300FBA3A32274F612036C8A828B83E0FC90DA
:103F13000353123FAE74027808120972EC4508FC91
:103F2300AD09EA2412123FA874067808120972EC4C
:103F33004508FCED4509FDEA2415F582EB122A55E7
:103F43006004780180027800E4C8F9ED49FDEA24B1
:103F530011F582EB122A55F50888097409780812BD
:103F63000972ED4509FDEA2416123FA8740B78087F
:103F7300120972ED4509FDEA2417123FA8740C7863
:103F830008120972ED4509FD8A828B83A3A3A3A3BB
:103F9300A3A3123FAE740A7808120972ECFAED4536
:103FA30009FB0246A9F582EB1237DDE0F508750936
:103FB3000022E085088285098322A3E0F98508822F
:103FC3008509832274EE12036C8A0A8B0BECFEEDD7
:103FD300FF750F01E9C39408500579000241BA8EB9
:103FE300828F83E9F0124420E96003750F001244C5
:103FF300048E828F8312444EEE124F52EF124443CB
:10400300C0E0EE2411122985D0E012443BC0E0EE5B
:104013002412122985D0E0123AA4740812500CA37A
:10402300A3A3E060151243ECEE2413F582EF1248CC
:104033001C8E828F83A3E02408F08E828F83A3A338
:10404300A3A3A3A3A3A3E060218E828F83A385826E
:104053000885830912442FEE2415F582EF12481CBC
:10406300850882850983E02408F08E828F83A3A3C9
:10407300A3A3A3E0601A8E828F83A385820885831E
:10408300091244138E828F83A3A3A3A3A31241DF38
:10409300EE2419123A91EE241B123A91A3124860AE
:1040A300E0700302414EEE2419F8EF3400F98E82DA
:1040B3008F83A3858208858309E0FAE50A2AF582BE
:1040C300E50B122A55888289831241DFFAE50A2A11
:1040D300F582E50B122A55C0E0EE241A122985D089
:1040E300E01241DF88828983E06059F8901F60E421
:1040F30093C398500575110C8008EE2419122A52A7
:10410300F5118E828F83A3E0F8E50A28F50CE50B01
:104113001241C31207D2E511C333FCE433FD7A968F
:104123007B0D1241BD12081EEE241B1229857496C5
:10413300F0A3740DF0E511C333F885088285098374
:10414300E0288006EE24181254BDF08E828F83A3DC
:10415300E0F88E828F83E0C3985003023FDDA3E033
:10416300FA8A08E50A2508F8E50B3400F9EE241D60
:10417300F582EF1249281241EFC39AC0E0EE2417EB
:10418300122985D0E0124825602BEE2417F8EF346E
:1041930000F9880889098882F583E024F212490925
:1041A300240EFAA3E03400FB888289831245E612C9
:1041B30041CDC398F0A90F023EBF1211D874032258
:1041C3003400F50D750E00780C2290034EE0F912C1
:1041D3000ABEE9F8850882850983E022F085088212
:1041E300850983E004F022A3A3A3A3A3F08E828F07
:1041F30083E02274F412036C8A088B09EA12428466
:10420300F0EA1313543F12427DA3A3A3F0EAC413AD
:1042130013124284A3A3F0EB12427612428E740966
:10422300780A120A1B12427412428D740A780A1217
:104233000A1BE50A5401C0E0EC2418F582ED1229AB
:1042430088D0E0124293740B780A120A1B1242744C
:10425300A312428D740C780A120A1B124274A3A390
:10426300A3A3A3A3A3A3F0740D7808120A1B02252A
:10427300B4E50A54018C828D8322540F8C828D8382
:104283002254038C828D83A3A322A3A3A3A3A3A35A
:10429300F08A0A8B0B22C082C08379008A828B83C7
:1042A300A3A3A3A3A3A3E090034D600FE070228A0E
:1042B300828B83A3A3E07019098016E060138A82BE
:1042C3008B83124B7A900356E06A7003A3E06B7002
:1042D300E7023B9074F012036C8A0A8B0B890C8CF7
:1042E300088D09124420124404850882850983122B
:1042F300444EE508124F52E509124443C0E0E50875
:104303002411F582E509122988D0E012443BC0E06C
:10431300123086122988D0E01249307408124949B4
:1043230060111243ECE5082413124924124930E0CA
:104333002408F0850882850983A3A3A3A3A3A3A3C9
:10434300A3E06017850882850983A312442BE5083F
:1043530024151249241241EF2408F08508828509A7
:1043630083A3A3A3A3A3E06019850882850983A37C
:10437300AE82AF831244138508828509831241EA12
:1043830004F0AA08AB09120D76E9F50D70568508FD
:1043930082850983A3A3A3A3A3A31243F77014E005
:1043A300FA8A0EE50A250EF8E50B124811E50CC34F
:1043B3009A802112442BE8240EF8E9124811900345
:1043C3004EE0F9120ABE8E828F83E0F8E50CC398A3
:1043D30024F2C399C0E0E5082417F582E509122900
:1043E30088D0E0F0A90D024F41E50A2408F8E50B57
:1043F3003400F9221243FB22E0850882850983A356
:1044030022850A82850B83A3A3124464E0F9EA227E
:10441300E0F8E50A28F582E50B124838228A828BF8
:1044230083124F46120D7022AE82AF83E0F8E50A85
:1044330028F8E50B3400F922124477A3A3A3E02262
:104443001237DDE8124470A3A3E022A3A3A3A3A31E
:10445300A3A3A3A3124470124464A3A3E0F9EAF84C
:1044630022E0FA850A82850B83A3A3A322F0A3E9A2
:1044730012447722F0850A82850B83A3A3A3A32288
:10448300C082C0837AC57B0379E21219647AC57B43
:1044930003023B90C082C083900356023B8DC082CF
:1044A300C08374FE120883851882851983AA82ABA0
:1044B30083794B1244C1124B837402023B66121977
:1044C3006485188285198322C082C083794A1219B0
:1044D30064023B9074F612036C9003CDE0FE04F08B
:1044E300EEF9120D288B09EA450970EDEE60EAF941
:1044F3000246A974F012036CEAFEEBFF8C088D09E7
:10450300890A7410120A69E0F50B7411120A69E042
:10451300F50C120E60EA4B7013E50C7042A90AAC5D
:1045230008AD09EEFAEFFB120E78806EE50A602102
:10453300EA2402F582EB122A55850A082508F8E4D5
:10454300340013E813F070098A828B83A3A37401E8
:10455300F0E50C6045E50B70068A828B83E4F0740A
:1045630001650C7035E50B9003D47004E4F0802AE8
:10457300E004F0900ECFE0F89003D4E0C398401A23
:10458300E4F0900359E06E7003A3E06F700CEEFA51
:10459300EFFB7901120BCC1245A0024F417A017B4C
:1045A300009003B0E0F912133422C082C083740177
:1045B3006A7001EB70077A011245D78012900EC61C
:1045C3001245E6EA4B600512233080031245A00230
:1045D3003B907A207B009003B0E0F912122C223436
:1045E30000F583EAF0A3EBF022C082C083900EC8EB
:1045F300023190C082C083900ECA02319074F612C9
:10460300036C75084275090378081207D67C6E7D22
:10461300007A217B001212E6740212081EE9F508E3
:10462300120AFAE942089004611246A06009124690
:1046330092121B07E94208120A88E9FE121544E99F
:10464300F8E5084E48F9805E74F612036C12192ED1
:1046530075084275090378081207D675086E75093F
:104663000078081207D67C007D007A217B001212A5
:10467300EC740412081E120B009004631246A0602F
:1046830006124692121B07120A8E12154A8017123F
:10469300525422EE240CF582EF3400F583123B874B
:1046A300E8492212081E7F020205DF74F612036C2A
:1046B30074FF1208837E0075084275090378081297
:1046C30007D67C6E7D007A217B001212E6740212FB
:1046D300081EE9600302477878081207D675086E4A
:1046E3008E0978081207D67C007D007A217B0012A0
:1046F30012F2740412081EE9707B900356E064FE04
:104703007003A3E0F4606E0E900365E06408600537
:10471300E06404705C851882851983EE1247A67ADB
:104723006D7B03794312196A7A6A7B0379471219FD
:104733006A7A5B7B03794A122EAE7A637B037950E4
:1047430012196A7A567B03795312196A7A6B7B03BF
:10475300795412196A7A587B0379E112196A900322
:1047630050E0A2E35004D2F08002C2F012479380DB
:104773000412192E1E120B069004651246A0600641
:10478300124692121B07120A9AEEF974010246A608
:10479300A2F0E4338518828519831247AF79521248
:1047A300196A221247AF794212196A22F0AA82AB20
:1047B300832274F612036CE9FEA2E05026750842C8
:1047C30075090378081207D675086E75090078080D
:1047D3001207D67C007D007A217B001212EC740450
:1047E30012081EEEA2E35003120B0CEEA2E2500ECF
:1047F3009004671246A06006124692121B070246F7
:10480300A9AA08AB099003B0E0F9121202223400FE
:10481300F9E508241DF582E5091237DDE8F0A3E97F
:10482300F022125010A3A3E022A3F0EE24151248A5
:104833003522F582EF3400F583E022124842223418
:1048430000F583E0F8A3E0F98882898322E0F81277
:10485300485622A3E0F98E828F83A3A322F0EE248D
:10486300181237DA22F0EE24161237DA2274F41211
:10487300036CEAFEEBFF7A007B041245A41248FFA7
:1048830012481F9003657409F0120D828A088B0980
:10489300AC08AD09EE2413122985124B83124A5337
:1048A300640170487A0F1248F260418A828B8374E4
:1048B30002124909FAA3E0FB8A828B83A3E0FC8AF4
:1048C300828B83A3A3E0FBEC850882850983A3A3E2
:1048D3001245E788828983124B87123FB512482C11
:1048E300FAA3E0FB794A12196A124804022A4A7BA6
:1048F300001211F68A088B09EA4509229003361241
:104903003B87900ECA22F0EE241DF8EF12491322C2
:10491300123CC8E02212491C223400F5837401F0D2
:1049230022F582E5091237DDE8F0A3E922124934C2
:104933002212493822F0850882850983A32212496D
:1049430038A3A3A3A322124941A3A3E022124D5AE1
:10495300120DEE22EE2417F582EF12491C120D827E
:10496300EE241A1237DAEAF0A3EBF02274F41203FE
:104973006C74F31208838908EAFEEBFF7C0D7D005B
:104983007900851882851983AA82AB831211E4EE1C
:10499300241D122985125245A3E0F8741F58600A9A
:1049A300790112193A7900024A4AE8A2E5500874DB
:1049B3000C120A697401F0E8A2E75008740B120A9A
:1049C300697401F0E8A2E6740A5008120A697401D6
:1049D300F08008120A69E064017005EE2413800375
:1049E300EE24151250827402120A69AA82AB831252
:1049F3001952122982124A5812481F740A120A695C
:104A0300E064017033122363703B120D8E8A0A8BAC
:104A13000BA80AA90BEE240B122A52687003A3E019
:104A2300697022120D82EAFCEBFD7402120A69AA74
:104A330082AB83124A53600D851882851983AA823B
:104A4300AB83120BC6A908740D022A47EEFAEFFBDB
:104A530012194CE922E0124A5D22F8A3E0F9851805
:104A6300828519832274F612036C74F31208838A05
:104A7300088B09ECFEEDFF7C0D7D00790085188223
:104A8300851983AA82AB831253EAA3A3A3A3A3A387
:104A9300A3A3A3124AF2124AFBF8A2E55008740B2F
:104AA300120A697401F0E8A2E75008740A120A694D
:104AB3007401F0E8A2E6EE500424138002241512D8
:104AC30050827402120A69124AE4A3A3E0C0E0749C
:104AD3000C120A69D0E0124D52120BC0740D02463B
:104AE300A6AA82AB8312195285088285098322E024
:104AF300124A5DE8F0A3E922F01237D7125249A314
:104B0300E02274F712036C74E1120883EAFEEBFFF0
:104B13008E828F83124B87A3A3A3E0A2E050518E12
:104B2300828F831224C38A828B83A3A3A3A3A3A309
:104B3300E054FE124B9F8A828B83124B98E0F98AD2
:104B4300828B83E0241CFAA3E01233F3124B83120B
:104B53000D7CE9701B741D120A69124B927011854A
:104B63001882851983AC82AD83EEFAEFFB120DDC5C
:104B7300024DC48E828F83A3A3A3A3A3A3A3A3A342
:104B8300122A4022124B8B2212524DA3A3A32212AC
:104B9300380F640422E0241B123CC122123B6FAC89
:104BA30082AD8322E9F87900740468600A740A68A4
:104BB300600574036870010902079A74F612036CA6
:104BC3008A828B837420F0A3A37401F0120B728A80
:104BD300088B09AE08AF09EE4F60108E828F837485
:104BE30001F09003A3E07003124957EEFAEFFB02C2
:104BF30046A9C082C0839003B97401F0E9A2E350CF
:104C0300037403F0E9A2E15004E0D2E2F0023B9026
:104C130074F612036C79007C008A088B09780812F9
:104C23000599F8FF07464C444C444C444C444C3DD6
:104C33004C414C464C3A4C0C80097C0480050C805A
:104C4300F67C089003B9E05C6003098003EC600123
:104C5300090246A974F612036C8A828B83E07012F0
:104C6300A31246A0600C8A828B83124B82121A60B5
:104C730080047A007B000246A974F512036C74F376
:104C83001208838A088B09ECFEEDFF750A12EA45C8
:104C93000970057900024D4B900356E065087004D6
:104CA300A3E065097014120D82EAFCEBFD124A4F72
:104CB3007005750A018003750A00851882851983BA
:104CC300E4F004120A69E508F0A3E509124D521253
:104CD3000B36E960277403120A69AA82AB83120BAD
:104CE30018E964017016750A017403120A69AC822B
:104CF300AD83124A4F6021750A00801C7412650A45
:104D030070169003A2E06402700EEEFCEFFDAA0899
:104D1300AB09120B4EE970DFEEFCEFFDAA08AB09FD
:104D2300120E66E9F8740A687005750A0180177433
:104D3300A0687012EEFCEFFDAA08AB09120E72AA6E
:104D430008AB09120E84A90A740D02575274021299
:104D53004D5622124D5A22123B6FAA82AB83227404
:104D6300F712036CEAFEEBFF8E828F83A3A3A3A348
:104D7300A3A3A3A3E06015EE2415122985122A30FC
:104D8300120E06E964017004790180258E828F83F7
:104D9300A3A3A3A3A3A3A3E06015EE241312298561
:104DA300124DB6FAA3E0FB120E06E9640160D9794D
:104DB3000080131234DFA3A3A3A3A3A3A3A3A3E09D
:104DC30022741F12081E7F010205DF74F012036CA8
:104DD30074FD1208838A088B09ECFEEDFF890B74BE
:104DE30013120A69E0F50C750A017401120A697459
:104DF3000412527D6048E50C601DEA2417F582EB2E
:104E03001254C012526B8A828B83E0D2E7F0EA24F9
:104E130014F582EB123A94124F51EB12483E74038D
:104E23001257E3EE88828983A3A3F0EF88828983F4
:104E3300A3A3123589123590120B6CE9F50AA90A5E
:104E43007403024F3E74EC12036C74F51208838AE8
:104E53000A8B0B890C8C0E8D0F741F120A69E0F5F7
:104E63000D7420120A69E0F510A3E0F5117E01EE3E
:104E7300120A69740AF0E97007E50DC333240AF0D6
:104E83001250237003024F251250387409F0A3E522
:104E93000CC43354E0450D12504AE50C702D7C00D0
:104EA3008023ECC333F8E433F9E51028F8E511392E
:104EB300F988828983124F3288828983122CA2F067
:104EC300A30EAF830CECC3950D40D7E5082417F56B
:104ED30082E509124918120D82E508241AF582E5C4
:104EE300091245E27403120A69AC82AD83AA0AABC4
:104EF3000B120B1EE96019E5082416F582E5091269
:104F03004F2C120A69A882A983E5082418124818AD
:104F13008508828509831257DFAA08AB09120B6C37
:104F2300E9FEEEF9740B02501B12491C740322E0D4
:104F33008E828F83F0A3AE82AF832212081E7F0876
:104F43000205DF123837F9EA2400E439FB22EA24A8
:104F53000BF5822274EE12036C8A0C8B0D890E8C76
:104F6300088D097412120A69E0F50F7413120A69A5
:104F730012500490051E1246A06077E50FC333F864
:104F8300E433F9E8240EFAE93400FB1211F68A102F
:104F93008B11AE10AF11EE4F60588E828F8374D495
:104FA300F0A3A3E50CF0A3E50D12500CE50EF0AC55
:104FB30008AD09EE2405FAEF125286EE240D1229EC
:104FC30085E50FF0850A08850B09750A0078081234
:104FD30007D2E50FC333FCE433FDEE240EFAEF12E0
:104FE3004FFB12081EEEFAEFFB90051E12524512FC
:104FF3001B07023EBFFAE5093400FB1211D8740304
:1050030022E0F50AA3E0F50B2212501022125014ED
:1050130022123AA8A3A3A32212081E7F0C0205DFC3
:10502300851882851983AA82AB83120DEE8A088BB9
:1050330009EA450922EA240BF582EB124838FEA35C
:10504300E0FF8E828F8322F0A3AE82AF83AC0EADDE
:105053000FEEFAEFFB12505C221219521250632228
:10506300EE2408FEEF3400FF22E0FA8E828F83A342
:10507300A3E022FEA3E03400FF8E828F83E022129E
:1050830037DA12508922E0FCA3E0FD22122A4012F3
:105093000D6A2274F612036CEAFEEBFF9003BA80EA
:1050A3001388828983E06E7003A3E06F603A88827D
:1050B3008983A3A31246A070E87A047B0012126EC0
:1050C3008A088B09A808A909E849601C8882898392
:1050D3001250F29003BA124B8388828983A3A312DE
:1050E30045E69003BA12481F0246A98A828B83EED3
:1050F300F0A3EFF02274F412036C7E009003BA80E5
:10510300070E88828983A3A31246A070F4EEC333EB
:10511300FAE433FB1251A0607E7F009003BA80242F
:1051230088828983125085EFC333FAE433FBE508A1
:105133002AF582E5093BF583ECF0A3EDF00F8882B5
:105143008983A3A31246A070D79003AB12239D704B
:1051530003A3E069780870191207D6EEF50A780AF6
:105163001207DA7C777D0379009003AB1251AB8091
:105173001A1207D6EEF50A780A1207DA7C777D034E
:1051830079009003AB124B83120E18740312081E9E
:10519300AA08AB09121A9C120B84022A4A12126E35
:1051A3008A088B09EA450922122A40120E1E22C0E0
:1051B30082C08380128A828B83A3A31237E8900371
:1051C300BA12481F121A9C9003BA1236F870E602FC
:1051D3003B9074F612036C9003631238149003CE61
:1051E30012523412481F7ACE7B03795012196A90F7
:1051F30003CE1225BCFAEFFB120E7E9003CE1238BB
:10520300149005201246A060257A067B001211F641
:10521300EA4B601A8A828B8374D5F0A3A3E41252FB
:105223005A0412526B900520125245121B07024674
:10523300A912523822E0F8A3E0F9900363228E8288
:105243008F831252492212524D22E0F812525322F6
:10525300A3E0F58388822212525E2212526222F068
:105263008A828B83A3A3A32212525EA3EEF0A3EF41
:10527300F022F582EF124838F922124950EA4B2204
:10528300FAE5093400FB12195222124857A3A3A3CB
:10529300A3A3A3A322901F6AE4932401F8E4340098
:1052A300F97A027B002274F712036C7E00800412E9
:1052B30058960E1253BA40F77E00EE1252D574FE82
:1052C300F0A3041252EAE4F00EEEC3940340EB029F
:1052D3004DC975F003A4F8A9F074BC28F874033918
:1052E300F988828983A3221252EE22F0888289836D
:1052F3002274F712036C7F0080010F901F5FE49309
:10530300F8EFC3985026EF1254A66A7003A3E06B1C
:1053130070E81258436C7003A3E06D600A74FF6C6D
:10532300700374FF6D70D31253B180047A007B0055
:10533300024DC974F612036C7CFF7DFF7AFE7BFF7E
:10534300120E42EA4B70407508008036E50875F08E
:1053530017A4F8A9F0743128F582740C1254B860BC
:105363000C743028F582740C1254B870137422280C
:10537300FE740C39FF8E828F831254C5EEFAEFFB55
:10538300050812542040C50246A974F412036C8A1E
:10539300088B09ECFEEDFF800B120E54EEFCEFFDC3
:1053A300AA08AB09120E42EA4B70EE022A4A742293
:1053B30028FA740C39FB22901F5FE493F8EEC3982C
:1053C3002274F712036CEAFEEBFFEE4F60101253E8
:1053D300E474FEF0A3041257E914F0A304F0024DA1
:1053E300C97C177D0079001211E48E828F832274A9
:1053F300F712036CEAFEEBFF7508008018E50875E9
:10540300F017A4F8A9F012584E7003A3E06F6003DD
:1054130012589E050812542040E3024DC9901F5FA5
:10542300E493F8E508C3982274F612036C120E4253
:105433008A088B09A808A909E849600AE8240DFA33
:10544300E93400FB80047A007B000246A974F4125D
:10545300036C8A0A8B0BECFEEDFF750800750900DF
:10546300802EE50975F017A4F8A9F0125889601E7B
:10547300E5091254A6650A7004A3E0650B70037571
:10548300080AEEFCEFFD12574560034308A0050927
:10549300901F5FE493F8E509C3985004E50860C2E0
:1054A3000225B475F017A4F8A9F01254B12274229E
:1054B30028F582740C39F583E022F582EF1237DD8B
:1054C300E422122A40120C62221252EEA3A3A3A3D7
:1054D300A3A3A3A32274F212036C8A088B09ECFE24
:1054E300EDFF740E120A69125004750C007C007DE6
:1054F3000180101211F0E50CF5F0EA84ACF0750CA4
:10550300007D007800790080031256821256DE4037
:10551300030255A4E8FAE9FBEA75F017A4FA85F04B
:105523000D75F017EBA4250D1256BA7003A3E0F422
:1055330060D712569865087004A3E0650960CA1223
:1055430056986E7003A3E06F60BF125698650A7099
:1055530004A3E0650B60B2E8FAE9FBEA75F017A46F
:10556300FA75F017EBA4250DFB74302AF582740C41
:10557300125679509474016D050C608DE50CC39C33
:105583004087E875F017A4F8AAF075F017E9A42A84
:10559300F9742228F582740C39F583124B83025671
:1055A300767800790080031256821256EB4003028C
:1055B300565DE8FAE9FBEA75F012A4FA85F00D12DC
:1055C30056CA64FE7003A3E0F460DC1256C065089B
:1055D3007004A3E0650960CF1256C06E7003A3E0A8
:1055E3006F60C41256C0650A7004A3E0650B60B710
:1055F300E8FAE9FBEA75F012A4FA75F012EBA425B8
:105603000DFB74B12AF582740A1256795099E8FA9F
:10561300E9FBEA75F012A4FA75F012EBA4250D125A
:10562300568B64016081E0640270030255AA740121
:105633006D050C70030255AAE50CC39C500302557B
:10564300AAE875F012A4F8AAF075F012E9A42AF9F1
:1056530074A828F582740A02559BE50C6011EC705E
:105663000E7401650C60030254F67C010255017A45
:10567300FE7BFF0223A93BF583E014C3940622E8D3
:10568300240108E93400F922FB74AC2AF582740A78
:105693003BF583E022E8FAE9FBEA75F017A4FA7513
:1056A300F017EBA4250D1256AD22FB74222AF582C6
:1056B300740C3BF583E0221256AD64FE22E8FAE94E
:1056C300FBEA75F012A4FA75F012EBA4250DFB7436
:1056D300A82AF582740A3BF583E022901F5FE493C6
:1056E300FAC3E89AE9940022901F5CE493FA7401E8
:1056F30093FBC3E89AE99B2274F512036C8A088B27
:1057030009ECFEEDFF750A008002050A901F5FE4B5
:1057130093F8E50AC3985028EEFCEFFDE50A75F00F
:1057230017A4F8A9F012574560E0E50A75F017A42D
:10573300F8A9F0742228F582740C39F58312359296
:105743008010742428FA740C39FB12194CE92212C4
:10575300081E7F030205DF74F012036C8A088B09AD
:105763008C0A8D0B890C120E488A0E8B0FAE0EAF6E
:105773000FEE4F60551253E4E508F0A3E509125705
:10578300E91257E1E50C600AEE240F122985E50CB6
:105793008006EE240F1257D9F09003D01246A06072
:1057A3001A9003AAE064017008EE240E1254BD801F
:1057B30010EE240E12298574078006EE240E12576C
:1057C300D9122ED812021B1257D0024F41EE240DCC
:1057D3001237DAE8F0221237DA740122A3A3E50ABA
:1057E300F0A3E50BF022123409A32274F512036C23
:1057F3008A088B09ECFEEDFF750A00800F12584EE4
:105803007003A3E06F600312589E050A901F5FE4C4
:1058130093F8E50AC3985025E50A75F017A4F8A98B
:10582300F012584365087004A3E0650970CF742C27
:1058330028F582740C39F5831250F280CD02575546
:10584300742C28F582740C1254B822742C28F58217
:10585300740C1254B86E2274F712036CEAFEEBFF59
:105863007508008019E5081254A66E7003A3E06F53
:10587300700A1258897005E50812589705081254E2
:105883002040E2024DC9742428FA740C39FB120B30
:1058930018E922EE75F017A4F8A9F01253B1120E0D
:1058A30054221252EE123B87E84922C082C083740D
:1058B300F8120883851882851983AC82AD837583BA
:1058C300807582227408120735851882851983AC86
:1058D30082AD83124A536401700479008002790116
:1058E3007408023B6674F612036C74FF1208838516
:1058F3001882851983E4F085820885830978081264
:1059030007D675080175090078081207D612593CA5
:10591300740412081E740102681D74F612036C8C61
:10592300088D0978081207D675080B7509007808E1
:105933001207D612593C02681B1259651212EC2247
:1059430074F612036C8C088D0978081207D6750853
:105953000B75090078081207D61259651212F20264
:10596300681BEA75F00BA4FAA8F075F00BEBA428FA
:10597300FBEAFCEBFD7A237B0022C082C0838A8290
:105983008B83E0D2E7F01214300264D3C082C08369
:105993007900125F0B1274B6C082C0839003301279
:1059A30070D0D083D082C3E09CA3E09D500C1276CC
:1059B30086FAA3E01259C06001090264D3FBEA75B9
:1059C300F00BA4FAA8F075F00BEBA428FB900332BC
:1059D300E02AF8A3E03B8882F583E0540F2274F7B2
:1059E30012036C8908125F0B125FB1ACF075F00BF8
:1059F300E9A42CF9900332E028FEA3E039FF7401F7
:105A0300650860067402650870208A828B83125FC2
:105A13009D126B8374026508701B125E5C125FE457
:105A230070138E828F83E4F0800BEA2403FCEB1265
:105A33005F7F125F8BEEFAEFFB120AD602680674E1
:105A4300F412036C127A7A79008E828F83E0607687
:105A5300890A890B8065E50A75F00BA4FAA8F0752D
:105A6300F00BE50B1259CD7046E50A75F00BA4F85F
:105A7300AAF075F00BE50B125FC38E828F83E0856E
:105A830008828509831260A5850882850983A3128C
:105A93006B83EE2403FCEF125F881266AA12743044
:105AA300AA08AB09120AD679019003301270EBE50C
:105AB3000A2401F50AE50B3400F50B125E64E50ACE
:105AC3009AE50B9B409002693C74F512036CEAFE65
:105AD300EBFF740B120A691266AF750A01EC4D6095
:105AE3002BEC127A96ED1274B6126B7B7901120AC3
:105AF300E2E5084509606F850882850983A3127A68
:105B0300847902AA08AB09120AE2805AE50845091A
:105B1300602B1274BA126DA51266AB125FCE700CB5
:105B2300EEFAEFFB120AE8E9F50A80CBEE2403FA5A
:105B3300125F0670317903EEFAEFFB80CA8E828F13
