:020000040000FA
:1000000002002700000080FB120051B9000302002B
:100010001175829875830074001200337582037520
:100020008300740012003375D0007581BF759F0086
:10003000020008C09FF59FE473D09F22D083D08236
:10004000C09FE493C0E0740193C0E0740293F59FF5
:100050002279012212003C60000012003C8F000057
:100060007C007D008019E82401F8E93400F9C3E838
:100070009417E9940240EFEC2401FCED3400FDC339
:10008000EC9AED9B50067800790080E2020039433B
:10009000FE0153FDBF0200397E007F0012005AD2DC
:1000A00090A28640FA7A0A7B00120054A28640EFA2
:1000B0007E007F00C3EE940AEF940050E2D2F0A2DB
:1000C0009030F001B392907A647B00120054EE24D9
:0800D00001FEEF3400FF80DCAB
:0400000500000027D0
:00000001FF
