:020000040000FA
:1000000002002700000080FB120051B9000302002B
:100010001175829875830074001200337582037520
:100020008300740012003375D0007581BF759F0086
:10003000020008C09FF59FE473D09F22D083D08236
:10004000C09FE493C0E0740193C0E0740293F59FF5
:100050002279012212003C60000012003C8F000057
:100060007C007D008019E82401F8E93400F9C3E838
:100070009417E9940240EFEC2401FCED3400FDC339
:10008000EC9AED9B50067800790080E2020039532B
:10009000F4E043FE1F02003912005AC291D290D2FE
:1000A000947AF47B01120054C291C290D2947AF4F3
:1000B0007B01120054C291C290C2947AF47B011267
:1000C0000054C291C290D2947AF47B01120054C2BF
:1000D00091D290D2947AF47B01120054D291D290B2
:1000E000D2947AF47B01120054C291C290C2947AE5
:1000F000F47B01120054D291D290D2947AF47B0115
:10010000120054C291C290C2947AF47B011200543E
:020110008089E4
:0400000500000027D0
:00000001FF
